:100000000C945D000C9485000C9485000C94850084
:100010000C9485000C9485000C9485000C9485004C
:100020000C9485000C9485000C9485000C9485003C
:100030000C9485000C9485000C9485000C9485002C
:100040000C9473020C9485000C9441020C941B02D6
:100050000C9485000C9485000C9485000C9485000C
:100060000C9485000C94850000000008000201003B
:100070000003040700000000000000000000000072
:10008000250028002B0000000000240027002A0083
:10009000040404040404040402020202020203032E
:1000A0000303030301020408102040800102040836
:1000B0001020010204081020350411241FBECFEFC8
:1000C000D8E0DEBFCDBF11E0A0E0B1E0E2E2F9E0B0
:1000D00002C005900D92AE32B107D9F721E0AEE231
:1000E000B1E001C01D92A63DB207E1F710E0CDE5F9
:1000F000D0E004C02197FE010E948404CC35D107D2
:10010000C9F70E94BD020C948F040C940000EFEA22
:10011000F0E02491EBE9F0E08491882399F090E0FD
:10012000880F991FFC01EA57FF4FA591B491FC017C
:10013000E458FF4F859194918FB7F894EC91E22B9E
:10014000EC938FBF0895E3E7F0E02491EFEAF0E04D
:100150009491EBE9F0E0E491EE2309F43BC0222313
:1001600039F1233091F038F42130A9F0223001F533
:1001700024B52F7D12C0273091F02830A1F0243013
:10018000B9F4209180002F7D03C0209180002F774B
:10019000209380000DC024B52F7724BD09C0209185
:1001A000B0002F7703C02091B0002F7D2093B000C6
:1001B000F0E0EE0FFF1FE458FF4FA591B4912FB769
:1001C000F894EC91811103C090959E2301C09E2B61
:1001D0009C932FBF0895CF92DF92EF92FF920F93DF
:1001E0001F93CF93DF936C017A018B01C0E0D0E0C5
:1001F000CE15DF0589F0D8016D918D01D601ED9105
:10020000FC910190F081E02DC6010995892B11F434
:100210007E0102C02196ECCFC701DF91CF911F91E3
:100220000F91FF90EF90DF90CF900895FC01918D9A
:10023000828D981761F0828DDF01A80FB11D5D9648
:100240008C91928D9F5F9F73928F90E008958FEFB6
:100250009FEF0895FC01918D828D981731F0828D6A
:10026000E80FF11D858D90E008958FEF9FEF0895C1
:10027000FC01918D228D892F90E0805C9F4F821B25
:1002800091098F739927089589E391E00E943801BD
:1002900021E0892B09F420E0822F0895FC01848D50
:1002A000DF01A80FB11DA35ABF4F2C91848D90E0A0
:1002B00001968F739927848FA689B7892C93A0897B
:1002C000B1898C9180648C93938D848D981306C032
:1002D0000288F389E02D80818F7D80830895EF92DD
:1002E000FF920F931F93CF93DF93EC0181E0888FF0
:1002F0009B8D8C8D981305C0E889F989808185FDD7
:1003000024C0F62E0B8D10E00F5F1F4F0F731127C7
:10031000E02E8C8DE8120CC00FB607FCFACFE889EE
:10032000F989808185FFF5CFCE010E944E01F1CF82
:100330008B8DFE01E80FF11DE35AFF4FF0820B8F0A
:10034000EA89FB898081806207C0EE89FF8960832A
:10035000E889F98980818064808381E090E0DF9181
:10036000CF911F910F91FF90EF900895CF93DF935E
:10037000EC01888D8823C9F0EA89FB89808185FD9D
:1003800005C0A889B9898C9186FD0FC00FB607FCFE
:10039000F5CF808185FFF2CFA889B9898C9185FF3F
:1003A000EDCFCE010E944E01E7CFDF91CF910895AE
:1003B00080E090E0892B29F00E94440181110C9487
:1003C000000008953FB7F894809133019091340173
:1003D000A0913501B091360126B5A89B05C02F3FED
:1003E00019F00196A11DB11D3FBFBA2FA92F982F5B
:1003F0008827820F911DA11DB11DBC01CD0142E0D6
:10040000660F771F881F991F4A95D1F708950097A7
:1004100069F0FC0101900020E9F73197AF01481B1A
:10042000590BBC0189E391E00C94EB0080E090E073
:1004300008950E948A041F920F920FB60F92112402
:100440002F933F934F935F936F937F938F939F93DC
:10045000AF93BF93EF93FF9389E391E00E944E0126
:10046000FF91EF91BF91AF919F918F917F916F918C
:100470005F914F913F912F910F900FBE0F901F9062
:1004800018951F920F920FB60F9211242F938F93EE
:100490009F93EF93FF93E0914901F0914A0180818E
:1004A000E0914F01F091500182FD12C09081809146
:1004B00052018F5F8F7320915301821751F0E091A9
:1004C0005201F0E0E75CFE4F958F8093520101C02E
:1004D0008081FF91EF919F918F912F910F900FBE8F
:1004E0000F901F9018951F920F920FB60F92112424
:1004F0002F933F938F939F93AF93BF9380912F013F
:1005000090913001A0913101B091320130912E01D2
:1005100023E0230F2D3720F40196A11DB11D05C046
:1005200026E8230F0296A11DB11D20932E01809372
:100530002F0190933001A0933101B093320180914B
:10054000330190913401A0913501B09136010196AB
:10055000A11DB11D8093330190933401A093350107
:10056000B0933601BF91AF919F918F913F912F91A1
:100570000F900FBE0F901F901895CF93DF93CDB7BC
:10058000DEB7A1970FB6F894DEBF0FBECDBF78944B
:1005900084B5826084BD84B5816084BD85B5826088
:1005A00085BD85B5816085BD80916E008160809339
:1005B0006E001092810080918100826080938100A2
:1005C00080918100816080938100809180008160B2
:1005D000809380008091B10084608093B10080910D
:1005E000B00081608093B00080917A008460809335
:1005F0007A0080917A00826080937A0080917A00FC
:10060000816080937A0080917A00806880937A007C
:100610001092C1000E948700E0914901F0914A01C7
:1006200082E08083E0914501F09146011082E091E3
:100630004701F09148018FEC808310925101E091C5
:100640004D01F0914E0186E08083E0914B01F091E5
:100650004C01808180618083E0914B01F0914C01DD
:10066000808188608083E0914B01F0914C01808112
:1006700080688083E0914B01F0914C0180818F7DF7
:10068000808331E4332E4AE0842E912CA12CB12CAE
:1006900003E710E030927C0080917A0080648093C0
:1006A0007A0080917A0086FDFCCF809178002091BD
:1006B000790090E0922B97FD0396959587959595F7
:1006C0008795909338018093370180E191E00E94F3
:1006D00007028BE291E00E940702C0903701D090A0
:1006E00038010D2C000CEE08FF08F7FE26C0E09143
:1006F0003901F0913A010190F081E02D6DE289E33A
:1007000091E0099522273327A9012C193D094E09AB
:100710005F0919A2CE0181967C01CA01B901A50128
:1007200094010E946204605DF70162937F012115CC
:1007300031054105510589F715C0A701960119A298
:10074000CE0181967C01CA01B901A50194010E94E4
:100750006204605DF70162937F0121153105410557
:10076000510589F7C7010E940702E0903701F09018
:1007700038010E948700E114F10411F480E005C003
:10078000FFEFEF16F10421F481E00E94A30043C0C3
:10079000F80184918330F9F048F48130B9F0823067
:1007A000A1F584B5806284BDE8BC35C08730E9F02E
:1007B000883019F1843049F58091800080628093FF
:1007C0008000F0928B00E0928A0025C084B580689A
:1007D00084BDE7BC20C08091800080688093800049
:1007E000F0928900E092880016C08091B000806885
:1007F0008093B000E092B3000EC08091B0008062A0
:100800008093B000E092B40006C0F0E8EF16F10467
:100810000CF0BACFB3CF0E94E2012B013C0188EB70
:10082000C82E8BE0D82EE12CF12C0E94E201DC01D5
:10083000CB0184199509A609B709883E9340A10503
:10084000B10558F021E0C21AD108E108F10888EE9C
:10085000480E83E0581E611C711CC114D104E104D0
:10086000F10419F70E94D80115CFE9E3F1E01382F2
:10087000128288EE93E0A0E0B0E084839583A683A3
:10088000B78384E091E09183808385EC90E0958745
:10089000848784EC90E09787868780EC90E0918B4A
:1008A000808B81EC90E0938B828B82EC90E0958B37
:1008B000848B86EC90E0978B868B118E128E138E34
:1008C000148E0895A1E21A2EAA1BBB1BFD010DC0B8
:1008D000AA1FBB1FEE1FFF1FA217B307E407F507F0
:1008E00020F0A21BB30BE40BF50B661F771F881FCC
:1008F000991F1A9469F760957095809590959B0162
:10090000AC01BD01CF010895EE0FFF1F0590F491DA
:10091000E02D099481E090E0F8940C948F04F89411
:02092000FFCF07
:10092200000000006F01EB00380116012A01B60138
:100932006C612076656C6F63696461642064656CC8
:0E094200206D6F746F722065733A000D0A000D
:00000001FF
