:100000000C9461000C947E000C947E000C947E0095
:100010000C947E000C947E000C947E000C947E0068
:100020000C947E000C947E000C947E000C947E0058
:100030000C947E000C947E000C947E000C947E0048
:100040000C9415010C947E000C947E000C947E00A0
:100050000C947E000C947E000C947E000C947E0028
:100060000C947E000C947E00000000002400270009
:100070002A0000000000250028002B0000000000DE
:1000800023002600290004040404040404040202DA
:100090000202020203030303030301020408102007
:1000A0004080010204081020010204081020000012
:1000B0000008000201000003040700000000000027
:1000C000000011241FBECFEFD8E0DEBFCDBF11E08E
:1000D000A0E0B1E0E2E7F4E002C005900D92AC30A0
:1000E000B107D9F721E0ACE0B1E001C01D92A13227
:1000F000B207E1F70E945F010C9437020C940000F4
:10010000833081F028F4813099F08230A1F0089595
:100110008730A9F08830B9F08430D1F48091800024
:100120008F7D03C0809180008F7780938000089539
:1001300084B58F7702C084B58F7D84BD089580918A
:10014000B0008F7703C08091B0008F7D8093B000A6
:1001500008951F93CF93DF93282F30E0F901E255E4
:10016000FF4F8491F901E656FF4FD491F901EA5708
:10017000FF4FC491CC23C9F0162F81110E9480003B
:10018000EC2FF0E0EE0FFF1FEE58FF4FA591B4915A
:100190008FB7F894111105C09C91ED2FE095E923DC
:1001A00002C0EC91ED2BEC938FBFDF91CF911F91AB
:1001B0000895CF93DF9390E0FC01E656FF4F249122
:1001C000FC01EA57FF4F8491882361F190E0880F8A
:1001D000991FFC01E859FF4FC591D491FC01EE58DD
:1001E000FF4FA591B491611109C09FB7F894888120
:1001F000209582238883EC912E230BC0623061F41A
:100200009FB7F8943881822F809583238883EC915F
:100210002E2B2C939FBF06C08FB7F894E8812E2B0E
:1002200028838FBFDF91CF9108951F920F920FB651
:100230000F9211242F933F938F939F93AF93BF936C
:1002400080911D0190911E01A0911F01B09120018C
:1002500030911C0123E0230F2D3720F40196A11DBE
:10026000B11D05C026E8230F0296A11DB11D2093E4
:100270001C0180931D0190931E01A0931F01B09358
:1002800020018091180190911901A0911A01B0915B
:100290001B010196A11DB11D8093180190931901B6
:1002A000A0931A01B0931B01BF91AF919F918F91C1
:1002B0003F912F910F900FBE0F901F90189578943B
:1002C00084B5826084BD84B5816084BD85B582605B
:1002D00085BD85B5816085BD80916E00816080930C
:1002E0006E00109281008091810082608093810075
:1002F0008091810081608093810080918000816085
:10030000809380008091B10084608093B1008091DF
:10031000B00081608093B00080917A008460809307
:100320007A0080917A00826080937A0080917A00CE
:10033000816080937A0080917A00806880937A004F
:100340001092C100C0E0D1E08881229660E00E9456
:10035000D90081E0CC30D807B9F761E08BE00E948A
:10036000D90061E08AE00E94D90061E089E00E9442
:10037000D900C0E0D0E00CE011E090E0E92E91E07F
:10038000F92EF701219131917F013327F901E255CF
:10039000FF4F8491F901E656FF4FC490F901EA57E7
:1003A000FF4FD490DD20A1F081110E948000ED2D3F
:1003B000F0E0EE0FFF1FE458FF4FA591B491EC91D0
:1003C000EC2131E020E009F430E0832F922F02C0CD
:1003D00080E090E0F801819391938F01FCE0EF16AB
:1003E000F1E0FF0609F0CDCF80910E0190910F0151
:1003F00020910C0130910D01232B21F4892B11F454
:1004000061E001C060E089E00E94A90080911201D2
:10041000909113012091100130911101213031058B
:1004200021F4019711F460E001C061E08AE00E94CC
:10043000A90080911601909117012091140130912B
:1004400015012115310521F4892B39F460E006C02E
:100450002130310511F40197C9F361E08BE00E946E
:10046000A900209709F487CF0E94000084CFF89458
:02047000FFCFBC
:0C04720002000300040005000600070063
:00000001FF
