:1000000014C1000040C100003EC100003CC100001E
:100010003AC1000038C1000036C1000034C1000000
:1000200032C1000030C100002EC100002CC1000010
:100030002AC1000028C1000026C1000024C1000020
:1000400022C1000020C100001EC100001CC1000030
:100050001AC1000018C1000016C10000C4C300008E
:1000600012C100008AC300005FC300000CC1000081
:100070000AC1000008C1000006C1000004C1000060
:1000800002C1000000C10000FEC00000FCC0000072
:10009000FAC00000F8C00000F6C00000F4C0000084
:1000A000F2C00000F0C00000EEC00000ECC0000094
:1000B000EAC00000E8C00000E6C00000E4C00000A4
:1000C000E2C00000E0C00000DEC00000DCC00000B4
:1000D000DAC00000D8C00000D6C00000D4C00000C4
:1000E000D2C0000093029602850289028F02CD02DF
:1000F0009A029E02A402A802AC02B202B602BA029E
:10010000CD02C002C402C802000021002400270062
:100110002A002D0030003300010100000401070116
:100120000A0100002200250028002B002E003100CB
:10013000340002010000050108010B01000020004D
:100140002300260029002C002F00320000010000AF
:10015000030106010901050505050705080808084A
:10016000020202020A0A080804040404010101014F
:10017000010101010303030303030303040707074A
:100180000C0C0C0C0C0C0C0C0202020206060606EF
:10019000060606060B0B0B0B0B0B0B0B01021020BC
:1001A00020080810204010204080020102010804AD
:1001B0000201010204081020408080402010080441
:1001C000020180040201804020100804020108049A
:1001D00002010102040810204080010204081020DE
:1001E000408000000A0B02090C0D0E0807030401F1
:1001F00000000000000000000000000000000000FF
:1002000000000000000000000000000000001211CB
:1002100010000000000000000000000000000000CE
:100220000000000000000000BF0511241FBECFEF3A
:10023000D1E2DEBFCDBF00E00CBF12E0A0E0B2E033
:10024000E4EFFBE000E00BBF02C007900D92AE3977
:10025000B107D9F723E0AEE9B2E001C01D92A435A1
:10026000B207E1F711E0C5E1D1E000E005C0219758
:100270000109802FFE01B0D4C431D10780E0080706
:10028000B1F7FBD2B5C4BCCECF92DF92EF92FF9212
:100290000F931F93CF93DF936C017A018B01C0E022
:1002A000D0E0CE15DF0589F0D8016D918D01D60122
:1002B000ED91FC910190F081E02DC6011995892BFB
:1002C00011F47E0102C02196ECCFC701DF91CF91DE
:1002D0001F910F91FF90EF90DF90CF9008950895B8
:1002E00080E090E00895FC01538D448D252F30E08F
:1002F000842F90E0821B930B541710F0CF96089533
:1003000001970895FC01918D828D981761F0828D7F
:10031000DF01A80FB11D5D968C91928D9F5F9F7339
:10032000928F90E008958FEF9FEF0895FC01918DDB
:10033000828D981731F0828DE80FF11D858D90E048
:1003400008958FEF9FEF0895FC01918D228D892FE5
:1003500090E0805C9F4F821B91098F7399270895CD
:1003600087EA92E0F1DF21E0892B09F420E0822F77
:100370000895FC01848DDF01A80FB11DA35ABF4F62
:100380002C91848D90E001968F739927848FA68994
:10039000B7892C93A089B1898C9180648C93938DBB
:1003A000848D981306C00288F389E02D80818F7DAB
:1003B00080830895EF92FF920F931F93CF93DF9363
:1003C000EC0181E0888F9B8D8C8D981305C0E889A6
:1003D000F989808185FD23C0F62E0B8D10E00F5F1B
:1003E0001F4F0F731127E02E8C8DE8120BC00FB634
:1003F00007FCFACFE889F989808185FFF5CFCE0126
:10040000B8DFF2CF8B8DFE01E80FF11DE35AFF4FED
:10041000F0820B8FEA89FB898081806207C0EE89B8
:10042000FF896083E889F98980818064808381E025
:1004300090E0DF91CF911F910F91FF90EF90089581
:10044000CF93DF93EC01888D8823C1F0EA89FB8983
:10045000808185FD05C0A889B9898C9186FD0EC073
:100460000FB607FCF5CF808185FFF2CFA889B98947
:100470008C9185FFEDCFCE017CDFE8CFDF91CF916E
:10048000089580E090E0892B19F06ADF811125C082
:1004900080E090E0892B41F080E090E0892B21F012
:1004A0000E94000081111CC080E090E0892B41F087
:1004B00080E090E0892B21F00E940000811113C0A0
:1004C00080E090E0892BA1F080E090E0892B81F022
:1004D0000E94000081110AC008950E940000D8CF38
:1004E0000E940000E1CF0E940000EACF0C940000BF
:1004F000089590E0FC013197E231F10508F04DC01C
:100500008827EE58FF4F8F4F67C3809180008F7709
:1005100003C0809180008F7D80938000089580913A
:100520008000877FF9CF84B58F7702C084B58F7D37
:1005300084BD08958091B0008F7703C08091B00092
:100540008F7D8093B0000895809190008F7707C0D1
:10055000809190008F7D03C080919000877F809371
:10056000900008958091A0008F7707C08091A0002F
:100570008F7D03C08091A000877F8093A0000895A5
:10058000809120018F7707C0809120018F7D03C06B
:1005900080912001877F8093200108951F93CF933E
:1005A000DF93282F30E0F901EE51FE4F8491F901DD
:1005B000E456FE4FD491F901EA5AFE4FC491CC2380
:1005C000C1F0162F811195DFEC2FF0E0EE0FFF1F29
:1005D000EE5DFE4FA591B4918FB7F894111105C04F
:1005E0009C91ED2FE095E92302C0EC91ED2BEC936B
:1005F0008FBFDF91CF911F910895CF93DF9390E04C
:10060000FC01E456FE4F2491FC01EA5AFE4F84910E
:10061000882361F190E0880F991FFC01E85FFE4F8D
:10062000C591D491FC01EE5DFE4FA591B49161118D
:1006300009C09FB7F8948881209582238883EC9124
:100640002E230BC0623061F49FB7F8943881822F5B
:10065000809583238883EC912E2B2C939FBF06C01B
:100660008FB7F894E8812E2B28838FBFDF91CF912D
:1006700008953FB7F8948091A3029091A402A091AD
:10068000A502B091A60226B5A89B05C02F3F19F080
:100690000196A11DB11D3FBFBA2FA92F982F882702
:1006A000820F911DA11DB11DBC01CD0142E0660F5D
:1006B000771F881F991F4A95D1F708958F929F92AF
:1006C000AF92BF92CF92DF92EF92FF92D2DF4B01B7
:1006D0005C018AE0C82ED12CE12CF12CCADFDC01B0
:1006E000CB0188199909AA09BB09883E9340A10545
:1006F000B10558F021E0C21AD108E108F10888EEEE
:10070000880E83E0981EA11CB11CC114D104E10421
:10071000F10421F7FF90EF90DF90CF90BF90AF9062
:100720009F908F90089560D21F920F920FB60F92F4
:1007300011240BB60F922F933F934F935F936F93B8
:100740007F938F939F93AF93BF93EF93FF9387EA2A
:1007500092E00FDEFF91EF91BF91AF919F918F914A
:100760007F916F915F914F913F912F910F900BBEB1
:100770000F900FBE0F901F9018951F920F920FB6FB
:100780000F9211240BB60F922F938F939F93EF9399
:10079000FF93E091B702F091B8028081E091BD0231
:1007A000F091BE0282FD12C090818091C0028F5FE5
:1007B0008F732091C102821751F0E091C002F0E0E6
:1007C000E955FD4F958F8093C00201C08081FF9154
:1007D000EF919F918F912F910F900BBE0F900FBEB5
:1007E0000F901F9018951F920F920FB60F92112421
:1007F0002F933F938F939F93AF93BF9380919F02CB
:100800009091A002A091A102B091A20230919E020B
:1008100023E0230F2D3720F40196A11DB11D05C043
:1008200026E8230F0296A11DB11D20939E028093FE
:100830009F029093A002A093A102B093A202809184
:10084000A3029091A402A091A502B091A6020196E4
:10085000A11DB11D8093A3029093A402A093A502B1
:10086000B093A602BF91AF919F918F913F912F912D
:100870000F900FBE0F901F901895789484B58260EA
:1008800084BD84B5816084BD85B5826085BD85B534
:10089000816085BD80916E00816080936E001092B2
:1008A000810080918100826080938100809181002D
:1008B00081608093810080918000816080938000BE
:1008C0008091B10084608093B1008091B00081601C
:1008D0008093B0008091910082608093910080911C
:1008E000910081608093910080919000816080935D
:1008F00090008091A10082608093A1008091A1006E
:1009000081608093A1008091A00081608093A0000D
:100910008091210182608093210180912101816079
:10092000809321018091200181608093200180913A
:100930007A00846080937A0080917A00826080934C
:100940007A0080917A00816080937A0080917A00A9
:10095000806880937A001092C100C2E1D2E061E029
:1009600089914BDE82E0C931D807C9F760E082E0A7
:1009700044DE60E083E041DE60E084E03EDE60E093
:1009800085E03BDE61E088E138DEE091B702F0917E
:10099000B80282E08083E091B302F091B402108249
:1009A000E091B502F091B6028FEC80831092BF0205
:1009B000E091BB02F091BC0286E08083E091B90235
:1009C000F091BA02808180618083E091B902F09158
:1009D000BA02808188608083E091B902F091BA0206
:1009E000808180688083E091B902F091BA028081B1
:1009F0008F7D808377E0F72E00E912E0C6E4D3E034
:100A0000F801219131918F013327F901EE51FE4F09
:100A10008491F901E456FE4FD490F901EA5AFE4F51
:100A2000E490EE2099F0811164DDEE2DF0E0EE0F00
:100A3000FF1FE45CFE4FA591B491EC91ED2131E0F4
:100A400020E009F430E0832F922F02C080E090E094
:100A500089939993F2E00E391F0791F6809148032C
:100A600090914903880F991F2091460330914703C5
:100A7000820F931F20914A0330914B03220F331FA3
:100A8000220F331F820F931F20914C0330914D038F
:100A900053E0220F331F5A95E1F7820F931F909373
:100AA0004503809344032091500330915103211555
:100AB000310591F402E812E0C2E1D2E0F80161915F
:100AC0008F0189916BDDFADD61E088E167DDF2E09D
:100AD000C931DF0799F751C06091520370915303F8
:100AE00040914E0350914F03672BB9F40097A9F43E
:100AF0004130510591F460E088E150DD02E812E0F8
:100B0000C2E1D2E0F80161918F01899147DDD6DD24
:100B1000F2E0C931DF07B1F730C0452BA9F421302D
:100B2000310591F409E812E0C2E1D2E0F8016191E7
:100B30008F01899133DDC2DDF2E0C931DF07B1F702
:100B400061E088E12BDD19C0F89E6001F99ED00CB0
:100B5000112402E112E0C0E0D0E0FE01EC0DFD1D29
:100B6000E75EFD4F6081F80181918F0117DDA6DD01
:100B70002196C730D10589F7E3CF83DC3DCFE7EA83
:100B8000F2E01382128288EE93E0A0E0B0E084836A
:100B90009583A683B78384E092E09183808385EC7C
:100BA00090E09587848784EC90E09787868780EC37
:100BB00090E0918B808B81EC90E0938B828B82EC28
:100BC00090E0958B848B86EC90E0978B868B118ED2
:100BD000128E138E148E0895EE0FFF1F881F8BBF89
:100BE0000790F691E02D199481E090E0F89400C010
:040BF000F894FFCFA7
:100BF40000000000DA01440173012002A401820113
:100C040096010D0C0B0A09080701010101010100FD
:100C140000010100000000010100010100010101C7
:100C240001010000010001010000010101000101B6
:100C340000010100000101010101010101000000A6
:100C44000001010101010101010101010001010093
:100C54000000010100010000010100000100010089
:100C64000000010101000001000101000000010178
:100C74000101000000000000000101010101010167
:0E0C8400020003000400050006001600170021
:00000001FF
