:100000000C9462000C948A000C948A000C948A0070
:100010000C948A000C948A000C948A000C948A0038
:100020000C948A000C948A000C948A000C948A0028
:100030000C948A000C948A000C948A000C948A0018
:100040000C943E020C948A000C940C020C94E60171
:100050000C948A000C948A000C948A000C948A00F8
:100060000C948A000C948A000000000024002700F1
:100070002A000000000023002600290000000000E4
:10008000250028002B0004040404040404040202D4
:100090000202020203030303030301020408102007
:1000A0004080010204081020010204081020000012
:1000B0000008000201000003040700000000000027
:1000C00000000D0411241FBECFEFD8E0DEBFCDBF6E
:1000D00011E0A0E0B1E0EEE8F8E002C005900D927A
:1000E000A437B107D9F722E0A4E7B1E001C01D921F
:1000F000A632B207E1F710E0C2E6D0E004C02197D3
:10010000FE010E943A04C136D107C9F70E94880255
:100110000C9445040C940000CF92DF92EF92FF9272
:100120000F931F93CF93DF936C017A018B01C0E093
:10013000D0E0CE15DF0589F0D8016D918D01D60193
:10014000ED91FC910190F081E02DC6010995892B7C
:1001500011F47E0102C02196ECCFC701DF91CF914F
:100160001F910F91FF90EF90DF90CF900895089529
:1001700080E090E00895FC01538D448D252F30E000
:10018000842F90E0821B930B541710F0CF960895A4
:1001900001970895FC01918D828D981761F0828DF1
:1001A000DF01A80FB11D5D968C91928D9F5F9F73AB
:1001B000928F90E008958FEF9FEF0895FC01918D4D
:1001C000828D981731F0828DE80FF11D858D90E0BA
:1001D00008958FEF9FEF0895FC01918D228D892F57
:1001E00090E0805C9F4F821B91098F73992708953F
:1001F0008DE791E00E94EC0021E0892B09F420E0DA
:10020000822F0895FC01848DDF01A80FB11DA35A30
:10021000BF4F2C91848D90E001968F739927848F26
:10022000A689B7892C93A089B1898C9180648C931D
:10023000938D848D981306C00288F389E02D808108
:100240008F7D80830895EF92FF920F931F93CF933A
:10025000DF93EC0181E0888F9B8D8C8D981305C016
:10026000E889F989808185FD24C0F62E0B8D10E088
:100270000F5F1F4F0F731127E02E8C8DE8120CC0FB
:100280000FB607FCFACFE889F989808185FFF5CFA1
:10029000CE010E940201F1CF8B8DFE01E80FF11D0E
:1002A000E35AFF4FF0820B8FEA89FB8980818062DD
:1002B00007C0EE89FF896083E889F98980818064BD
:1002C000808381E090E0DF91CF911F910F91FF90AB
:1002D000EF900895CF93DF93EC01888D8823C9F0C8
:1002E000EA89FB89808185FD05C0A889B9898C913F
:1002F00086FD0FC00FB607FCF5CF808185FFF2CFDA
:10030000A889B9898C9185FFEDCFCE010E940201A9
:10031000E7CFDF91CF91089580E090E0892B29F01D
:100320000E94F80081110C9400000895833081F040
:1003300028F4813099F08230A1F008958730A9F037
:100340008830B9F08430D1F4809180008F7D03C073
:10035000809180008F7780938000089584B58F7797
:1003600002C084B58F7D84BD08958091B0008F77E1
:1003700003C08091B0008F7D8093B00008953FB797
:10038000F8948091790190917A01A0917B01B091CC
:100390007C0126B5A89B05C02F3F19F00196A11D31
:1003A000B11D3FBFBA2FA92F982F8827820F911D0B
:1003B000A11DB11DBC01CD0142E0660F771F881F52
:1003C000991F4A95D1F708950E9440041F920F92F9
:1003D0000FB60F9211242F933F934F935F936F9318
:1003E0007F938F939F93AF93BF93EF93FF938DE78B
:1003F00091E00E940201FF91EF91BF91AF919F9117
:100400008F917F916F915F914F913F912F910F90BD
:100410000FBE0F901F9018951F920F920FB60F925C
:1004200011242F938F939F93EF93FF93E0918D016E
:10043000F0918E018081E0919301F091940182FD11
:1004400012C09081809196018F5F8F7320919701E8
:10045000821751F0E0919601F0E0E358FE4F958F3E
:100460008093960101C08081FF91EF919F918F91C0
:100470002F910F900FBE0F901F9018951F920F9203
:100480000FB60F9211242F933F938F939F93AF93A7
:10049000BF938091750190917601A0917701B09101
:1004A00078013091740123E0230F2D3720F4019659
:1004B000A11DB11D05C026E8230F0296A11DB11D87
:1004C000209374018093750190937601A093770136
:1004D000B09378018091790190917A01A0917B018C
:1004E000B0917C010196A11DB11D8093790190937B
:1004F0007A01A0937B01B0937C01BF91AF919F9152
:100500008F913F912F910F900FBE0F901F901895D4
:10051000789484B5826084BD84B5816084BD85B5DE
:10052000826085BD85B5816085BD80916E008160EA
:1005300080936E0010928100809181008260809390
:100540008100809181008160809381008091800092
:100550008160809380008091B10084608093B100BD
:100560008091B00081608093B00080917A008460B7
:1005700080937A0080917A00826080937A008091E3
:100580007A00816080937A0080917A0080688093FD
:100590007A001092C100A7E6B1E08D919D91992754
:1005A000FC01E656FF4F2491FC01EA57FF4F84916E
:1005B0008823C9F090E0880F991FFC01E859FF4F8C
:1005C00045915491FC01E458FF4FC591D4919FB7D8
:1005D000F894FA0180812095822380838881E22F1C
:1005E000E823E8839FBFF1E0A337BF07B1F6A2E19C
:1005F000B1E08D9190E0FC01E656FF4F2491FC01A3
:10060000EA57FF4F8491882399F090E0880F991F53
:10061000FC01E859FF4FC591D491FC01E458FF4F0C
:10062000859194918FB7F894E881E22BE8838FBF8E
:1006300021E0A731B207E9F6E0918D01F0918E013A
:1006400082E08083E0918901F0918A011082E0913B
:100650008B01F0918C018FEC808310929501E091D9
:100660009101F091920186E08083E0918F01F091F9
:100670009001808180618083E0918F01F0919001F1
:10068000808188608083E0918F01F091900180816A
:1006900080688083E0918F01F091900180818F7D4F
:1006A000808375E0D72ECAE1D2E007E611E0F801B9
:1006B000219131918F013327F901E255FF4F849148
:1006C000F901E656FF4FE490F901EA57FF4FF49025
:1006D000FF20A1F081110E949601EF2DF0E0EE0FB6
:1006E000FF1FEE58FF4FA591B491EC91EE2131E040
:1006F00020E009F430E0832F922F02C080E090E0E8
:1007000089939993F1E003371F0789F680911C02C2
:1007100090911D02880F991F20911A0230911B029F
:10072000820F931F20911E0230911F02220F331F50
:10073000220F331F820F931F20912002309121023C
:1007400053E0220F331F5A95E1F7820F931FD89E73
:100750008001D99E100D1124C2E1D1E0E12CF12CD1
:10076000F701E00FF11FE95EFE4FA080299130E014
:10077000F901E255FF4F8491F901E656FF4FB4901D
:10078000F901EA57FF4FC490CC20B1F081110E94CB
:100790009601EC2DF0E0EE0FFF1FE458FF4FA591FE
:1007A000B4918FB7F894EC91A11003C0B094BE221D
:1007B00001C0BE2ABC928FBF2FEFE21AF20A85E079
:1007C000E816F10409F0CCCF0E94BF012B013C01D7
:1007D00082E3882E912CA12CB12C0E94BF01DC0158
:1007E000CB0184199509A609B709883E9340A10554
:1007F000B10558F0E1E08E1A9108A108B108F8EEB1
:100800004F0EF3E05F1E611C711C81149104A10462
:10081000B10419F70E948C0146CFEDE7F1E0138295
:10082000128288EE93E0A0E0B0E084839583A683F3
:10083000B78384E091E09183808385EC90E0958795
:10084000848784EC90E09787868780EC90E0918B9A
:10085000808B81EC90E0938B828B82EC90E0958B87
:10086000848B86EC90E0978B868B118E128E138E84
:10087000148E0895EE0FFF1F0590F491E02D09945A
:0E08800081E090E0F8940C944504F894FFCFCA
:10088E000000000023018C00BB006A01EC00CA00CE
:10089E00DE000D0C0B0A0900000000000000000035
:1008AE000100000001000000000101000001000035
:1008BE000000010001000001010000000101010023
:1008CE000100000000010000010100000000010015
:1008DE000000010100000100010000010101000102
:1008EE0000000100010001020003000400050006E3
:0408FE0000070000EF
:00000001FF
