:100000000C945D000C9485000C9485000C94850084
:100010000C9485000C9485000C9485000C9485004C
:100020000C9485000C9485000C9485000C9485003C
:100030000C9485000C9485000C9485000C9485002C
:100040000C9400050C9485000C94CE040C94A80428
:100050000C9485000C9485000C9485000C9485000C
:100060000C9485000C94850000000008000201003B
:100070000003040700000000000000000000000072
:10008000250028002B0000000000240027002A0083
:10009000040404040404040402020202020203032E
:1000A0000303030301020408102040800102040836
:1000B00010200102040810204A0511241FBECFEFB2
:1000C000D8E0DEBFCDBF11E0A0E0B1E0E8E0F3E1B1
:1000D00002C005900D92A437B107D9F722E0A4E73A
:1000E000B1E001C01D92AC33B207E1F710E0CDE5FD
:1000F000D0E004C02197FE010E947709CC35D107DA
:10010000C9F70E9495050C9482090C94000090E0B8
:10011000FC01EC55FF4F2491FC01E057FF4F849107
:10012000882399F090E0880F991FFC01EA57FF4F50
:10013000A591B491FC01E458FF4F859194918FB73C
:10014000F894EC91E22BEC938FBF0895DC01ED91D4
:10015000FC910190F081E02D0994CF92DF92EF9213
:10016000FF920F931F93CF93DF936C017A018B0162
:10017000C0E0D0E0CE15DF0589F0D8016D918D018A
:10018000D601ED91FC910190F081E02DC601099519
:10019000892B11F47E0102C02196ECCFC701DF91BB
:1001A000CF911F910F91FF90EF90DF90CF90089526
:1001B000FC01538D448D252F30E0842F90E0821B6D
:1001C000930B541710F0CF96089501970895FC01F2
:1001D000918D828D981761F0828DDF01A80FB11D7E
:1001E0005D968C91928D9F5F9F73928F90E00895A2
:1001F0008FEF9FEF0895FC01918D828D981731F05C
:10020000828DE80FF11D858D90E008958FEF9FEFAF
:100210000895FC01918D228D892F90E0805C9F4F85
:10022000821B91098F739927089587E891E00E94B6
:10023000090121E0892B09F420E0822F0895FC01B7
:10024000848DDF01A80FB11DA35ABF4F2C91848D5F
:1002500090E001968F739927848FA689B7892C9394
:10026000A089B1898C9180648C93938D848D98132F
:1002700006C00288F389E02D80818F7D80830895F8
:10028000EF92FF920F931F93CF93DF93EC0181E0E6
:10029000888F9B8D8C8D981305C0E889F9898081A2
:1002A00085FD24C0F62E0B8D10E00F5F1F4F0F73DE
:1002B0001127E02E8C8DE8120CC00FB607FCFACF88
:1002C000E889F989808185FFF5CFCE010E941F0161
:1002D000F1CF8B8DFE01E80FF11DE35AFF4FF08245
:1002E0000B8FEA89FB898081806207C0EE89FF89D4
:1002F0006083E889F98980818064808381E090E06F
:10030000DF91CF911F910F91FF90EF900895CF93C0
:10031000DF93EC01888D8823C9F0EA89FB8980810D
:1003200085FD05C0A889B9898C9186FD0FC00FB6DF
:1003300007FCF5CF808185FFF2CFA889B9898C9120
:1003400085FFEDCFCE010E941F01E7CFDF91CF9156
:10035000089580E090E0892B29F00E941501811119
:100360000C940000089590E0FC01E859FF4F34918F
:10037000FC01EC55FF4F2491FC01E057FF4FE49145
:10038000EE2309F43BC0332339F1333091F038F4D4
:100390003130A9F0323001F584B58F7D12C037308D
:1003A00091F03830A1F03430B9F4809180008F7D25
:1003B00003C0809180008F77809380000DC084B54A
:1003C0008F7784BD09C08091B0008F7703C0809182
:1003D000B0008F7D8093B000F0E0EE0FFF1FE45877
:1003E000FF4FA591B4918FB7F894EC91611103C0C0
:1003F00020952E2301C02E2B2C938FBF08953FB73D
:10040000F8948091790190917A01A0917B01B0914B
:100410007C0126B5A89B05C02F3F19F00196A11DB0
:10042000B11D3FBFBA2FA92F982F8827820F911D8A
:10043000A11DB11DBC01CD0142E0660F771F881FD1
:10044000991F4A95D1F70895CF93DF93EC0160E0AF
:100450008E810E94B30161E08E810E94B30160E051
:100460008E810E94B3018BE891E00197F1F7DF9153
:10047000CF910895CF92DF92EF92FF920F931F9347
:10048000CF93DF937C016C0187E0C80ED11CC0E0E4
:10049000D0E0062F10E0B8010C2E02C075956795CC
:1004A0000A94E2F76170F60181916F010E94B30135
:1004B0002196C430D10579F7C701DF91CF911F9103
:1004C0000F91FF90EF90DF90CF900C942402CF9289
:1004D000DF92EF92FF920F931F93CF93DF93EC0184
:1004E000F62E642F8C810E94B3018D818F3F19F00D
:1004F00060E00E94B3018F850F2D10E084FF25C0BE
:100500006E0187E0C80ED11CE12CF12CB8010E2C35
:1005100002C0759567950A94E2F76170F6018191C2
:100520006F010E94B301FFEFEF1AFF0A88E0E8169F
:10053000F10461F7CE01DF91CF911F910F91FF90F0
:10054000EF90DF90CF900C942402B80184E0759571
:1005500067958A95E1F7CE010E943A026F2DCE0190
:10056000DF91CF911F910F91FF90EF90DF90CF908F
:100570000C943A0241E00E94670281E090E0089505
:1005800040E00C946702EF92FF920F931F93CF937A
:10059000DF93EC01623018F08F8588608F876B8B5A
:1005A0001C8A80E48D8B80E18E8B80E58F8B8C8123
:1005B0000E9487008D818F3F11F00E9487008E81FD
:1005C0000E9487007E0187E0E80EF11C00E010E049
:1005D0008F8584FD03C084E090E002C088E090E055
:1005E0000817190744F4F70181917F010E948700E1
:1005F0000F5F1F4FEDCF8BE39DE00197F1F760E0B8
:100600008C810E94B30160E08E810E94B3018D81D4
:100610008F3F19F060E00E94B3016F8564FD1DC03B
:1006200063E0CE010E943A020BE416E4C801019790
:10063000F1F763E0CE010E943A02C8010197F1F799
:1006400063E0CE010E943A0283E592E00197F1F760
:1006500062E0CE010E943A0216C06062CE010E94A2
:10066000C0028BE496E40197F1F76F856062CE01DA
:100670000E94C00283E592E00197F1F76F85606206
:10068000CE010E94C0026F856062CE010E94C0024E
:1006900084E0888B6CE0CE010E94C00261E0CE0154
:1006A0000E94C0028BE39FE10197F1F782E0898B02
:1006B00066E0CE01DF91CF911F910F91FF90EF90F7
:1006C0000C94C002089580E090E008950E947D0996
:1006D0006115710579F0FB0101900020E9F7319770
:1006E000AF01461B570BDC01ED91FC910280F381B9
:1006F000E02D099480E090E008954F925F926F9210
:100700007F92EF92FF920F931F93CF93DF93CDB71A
:10071000DEB7A1970FB6F894DEBF0FBECDBF7C0148
:10072000FA01CB0119A2223008F42AE08E010F5DF4
:100730001F4F422E512C612C712CBF01A30192013D
:100740000E945509F901CA01015011096A3014F4D7
:10075000605D01C0695CD8016C93232B242B252B91
:1007600061F7B801C7010E946803A1960FB6F8941B
:10077000DEBF0FBECDBFDF91CF911F910F91FF90D4
:10078000EF907F906F905F904F9008954F925F929F
:100790006F927F928F929F92AF92BF92CF92DF9291
:1007A000EF92FF92CF93DF93EC016A017B01B22EAF
:1007B0009A01AB01C701B6010E945009882319F0C4
:1007C0006EE171E027C026013701E89477F82FEF3A
:1007D0003FEF4FE75FE7C301B2010E94500981116B
:1007E0000DC02FEF3FEF4FE75FE7C301B2010E945B
:1007F000860718161CF462E271E00CC02FEF3FEF81
:100800004FE75FE4C701B6010E94DE0818169CF4AA
:1008100066E271E0CE01DF91CF91FF90EF90DF9023
:10082000CF90BF90AF909F908F907F906F905F9090
:100830004F900C9468032FEF3FEF4FE75FECC70139
:10084000B6010E94860787FDE3CF20E030E0A901D2
:10085000C701B6010E94860787FF0AC06DE2CE017C
:100860000E94A6004C01F7FAF094F7F8F09402C049
:10087000812C912CA12C60E070E080E09FE3AB1410
:1008800041F020E030E040E251E40E948B07A39465
:10089000F6CF9B01AC01C701B6010E941A072B01DC
:1008A0003C010E94FD076B017C010E942C089B010A
:1008B000AC01C301B2010E9419072B013C012AE0DF
:1008C000B701A601CE010E947D037C01E80CF91C52
:1008D000BB2031F06EE2CE010E94A600E80EF91EA8
:1008E000DB2CDD2029F120E030E040E251E4C301BF
:1008F000B2010E94E3082B013C010E94FD074B015D
:10090000A12CB12C2AE0B501A401CE010E947D03E7
:10091000E80EF91EC501B4010E942C089B01AC0130
:10092000C301B2010E9419072B013C01DA94D9CF0F
:10093000C701DF91CF91FF90EF90DF90CF90BF90F4
:10094000AF909F908F907F906F905F904F900895A1
:100950001F920F920FB60F9211242F933F934F9334
:100960005F936F937F938F939F93AF93BF93EF9317
:10097000FF9387E891E00E941F01FF91EF91BF91E3
:10098000AF919F918F917F916F915F914F913F9127
:100990002F910F900FBE0F901F9018951F920F92DE
:1009A0000FB60F9211242F938F939F93EF93FF9382
:1009B000E0919701F09198018081E0919D01F09183
:1009C0009E0182FD12C090818091A0018F5F8F7384
:1009D0002091A101821751F0E091A001F0E0E957C8
:1009E000FE4F958F8093A00101C08081FF91EF9110
:1009F0009F918F912F910F900FBE0F901F90189580
:100A00001F920F920FB60F9211242F933F938F9343
:100A10009F93AF93BF938091750190917601A091C0
:100A20007701B09178013091740123E0230F2D37C5
:100A300020F40196A11DB11D05C026E8230F0296E2
:100A4000A11DB11D209374018093750190937601CF
:100A5000A0937701B09378018091790190917A0108
:100A6000A0917B01B0917C010196A11DB11D8093E5
:100A7000790190937A01A0937B01B0937C01BF919F
:100A8000AF919F918F913F912F910F900FBE0F903B
:100A90001F901895E7E8F1E01382128288EE93E048
:100AA000A0E0B0E084839583A683B78384E091E0DF
:100AB0009183808385EC90E09587848784EC90E037
:100AC0009787868780EC90E0918B808B81EC90E01B
:100AD000938B828B82EC90E0958B848B86EC90E0FC
:100AE000978B868B118E128E138E148EE4E2F2E0B9
:100AF0001382128286E191E09183808387E0848370
:100B00008FEF858388E0868389E087838AE080870A
:100B10008BE081878CE08287138614861586168683
:100B2000178661E0CF010C94C302789484B582608B
:100B300084BD84B5816084BD85B5826085BD85B581
:100B4000816085BD80916E00816080936E001092FF
:100B5000810080918100826080938100809181007A
:100B6000816080938100809180008160809380000B
:100B70008091B10084608093B1008091B000816069
:100B80008093B00080917A00846080937A00809195
:100B90007A00826080937A0080917A0081608093ED
:100BA0007A0080917A00806880937A001092C10068
:100BB000E0919701F091980182E08083E0919301A8
:100BC000F09194011082E0919501F09196018FECE3
:100BD000808310929F01E0919B01F0919C0186E03F
:100BE0008083E0919901F0919A01808180618083F6
:100BF000E0919901F0919A01808188608083E09171
:100C00009901F0919A01808180688083E091990137
:100C1000F0919A0180818F7D808362E084E292E08E
:100C20000E94C3026AE271E084E292E00E946803DB
:100C300011E4CBE3DFE110937C0080917A008064C3
:100C400080937A0080917A0086FDFCCF80917800B5
:100C50002091790090E0922B9093860180938501FA
:100C600067E371E087E891E00E946803C090850126
:100C7000D09086010D2C000CEE08FF08F7FE0EC088
:100C80006DE287E891E00E94A60044275527BA014B
:100C90004C195D096E097F092AE003C02AE0B701FB
:100CA000A60187E891E00E947D0360918501709123
:100CB0008601072E000C880B990B0E942E0820E05D
:100CC00030E040E85AE30E94E30820E030E040EAE8
:100CD00050E40E94E3086093810170938201809345
:100CE0008301909384016AE471E087E891E00E94B7
:100CF000680340918101509182016091830170915C
:100D0000840122E087E891E00E94C60366E571E075
:100D100087E891E00E94680320E030E040E05FE374
:100D20006091810170918201809183019091840191
:100D30000E94190720E030E048EC52E40E94E308EA
:100D4000AB01BC0140937D0150937E0160937F0114
:100D50007093800122E087E891E00E94C60362E67A
:100D600071E087E891E00E946803E1E0809137023A
:100D70008111E0E0E195F0E0EC5DFD4F6489606891
:100D800084E292E00E94C00265E671E084E292E0B3
:100D90000E946803E0913702E23010F4E15001C094
:100DA000E1E0F0E0EC5DFD4F6489695F606884E23A
:100DB00092E00E94C00240917D0150917E016091BD
:100DC0007F017091800122E084E292E00E94C603DC
:100DD0000E94FF014B015C0184E6C82ED12CE12C5E
:100DE000F12C0E94FF01DC01CB0188199909AA09A5
:100DF000BB09883E9340A105B10558F021E0C21A15
:100E0000D108E108F10888EE880E83E0981EA11C45
:100E1000B11CC114D104E104F10419F761E084E2CA
:100E200092E00E94C002CE010197F1F70E94A90151
:100E300002CF5058BB27AA270E9431070C94A40860
:100E40000E94960838F00E949D0820F039F49F3FD8
:100E500019F426F40C9493080EF4E095E7FB0C9437
:100E60008D08E92F0E94B50858F3BA176207730777
:100E70008407950720F079F4A6F50C94D7080EF4B2
:100E8000E0950B2EBA2FA02D0B01B90190010C019A
:100E9000CA01A0011124FF27591B99F0593F50F4B2
:100EA000503E68F11A16F040A22F232F342F44270A
:100EB000585FF3CF469537952795A795F040539502
:100EC000C9F77EF41F16BA0B620B730B840BBAF0D2
:100ED0009150A1F0FF0FBB1F661F771F881FC2F73D
:100EE0000EC0BA0F621F731F841F48F48795779551
:100EF0006795B795F7959E3F08F0B0CF9395880F0B
:100F000008F09927EE0F9795879508950E94690834
:100F100008F481E008950E949F070C94A4080E94A1
:100F20009D0858F00E94960840F029F45F3F29F090
:100F30000C948D0851110C94D8080C9493080E94BD
:100F4000B50868F39923B1F3552391F3951B550B1D
:100F5000BB27AA2762177307840738F09F5F5F4F8C
:100F6000220F331F441FAA1FA9F335D00E2E3AF0CB
:100F7000E0E832D091505040E695001CCAF72BD0E3
:100F8000FE2F29D0660F771F881FBB1F2617370734
:100F90004807AB07B0E809F0BB0B802DBF01FF2766
:100FA00093585F4F3AF09E3F510578F00C948D08AE
:100FB0000C94D8085F3FE4F3983ED4F38695779578
:100FC0006795B795F7959F5FC9F7880F911D96951F
:100FD000879597F90895E1E0660F771F881FBB1F7B
:100FE000621773078407BA0720F0621B730B840B28
:100FF000BA0BEE1F88F7E09508950E94BD0888F0AF
:101000009F5798F0B92F9927B751B0F0E1F0660FCC
:10101000771F881F991F1AF0BA95C9F714C0B1300D
:1010200091F00E94D708B1E008950C94D708672F7B
:10103000782F8827B85F39F0B93FCCF3869577953C
:101040006795B395D9F73EF4909580957095619525
:101050007F4F8F4F9F4F0895E89409C097FB3EF450
:1010600090958095709561957F4F8F4F9F4F9923F5
:10107000A9F0F92F96E9BB279395F6958795779573
:101080006795B795F111F8CFFAF4BB0F11F460FF33
:101090001BC06F5F7F4F8F4F9F4F16C0882311F08B
:1010A00096E911C0772321F09EE8872F762F05C09F
:1010B000662371F096E8862F70E060E02AF09A953A
:1010C000660F771F881FDAF7880F9695879597F92F
:1010D0000895990F0008550FAA0BE0E8FEEF1616C9
:1010E0001706E807F907C0F012161306E407F5071C
:1010F00098F0621B730B840B950B39F40A2661F090
:10110000232B242B252B21F408950A2609F4A14032
:10111000A6958FEF811D811D089597F99F6780E83F
:1011200070E060E008959FEF80EC089500240A9439
:101130001616170618060906089500240A941216B2
:101140001306140605060895092E0394000C11F4E5
:10115000882352F0BB0F40F4BF2B11F460FF04C092
:101160006F5F7F4F8F4F9F4F089557FD9058440FEB
:10117000551F59F05F3F71F04795880F97FB991FF6
:1011800061F09F3F79F087950895121613061406B3
:10119000551FF2CF4695F1DF08C016161706180640
:1011A000991FF1CF86957105610508940895E8941B
:1011B000BB2766277727CB0197F908950E94690816
:1011C00008F48FEF08950E94F6080C94A4080E947A
:1011D000960838F00E949D0820F0952311F00C9499
:1011E0008D080C94930811240C94D8080E94B5081B
:1011F00070F3959FC1F3950F50E0551F629FF0016A
:10120000729FBB27F00DB11D639FAA27F00DB11D82
:10121000AA1F649F6627B00DA11D661F829F22270B
:10122000B00DA11D621F739FB00DA11D621F839F92
:10123000A00D611D221F749F3327A00D611D231F68
:10124000849F600D211D822F762F6A2F11249F57B6
:1012500050409AF0F1F088234AF0EE0FFF1FBB1FB9
:10126000661F771F881F91505040A9F79E3F510578
:1012700080F00C948D080C94D8085F3FE4F3983EFE
:10128000D4F3869577956795B795F795E7959F5F22
:10129000C1F7FE2B880F911D9695879597F90895B4
:1012A0000E946908880B990B0895A1E21A2EAA1BC7
:1012B000BB1BFD010DC0AA1FBB1FEE1FFF1FA21706
:1012C000B307E407F50720F0A21BB30BE40BF50B03
:1012D000661F771F881F991F1A9469F7609570958C
:1012E000809590959B01AC01BD01CF010895EE0F53
:1012F000FF1F0590F491E02D099481E090E0F894AF
:081300000C948209F894FFCF60
:10130800000000004001AD00D80087010901E70096
:10131800FB0000000000BA02AD00630362036E61C7
:101328006E00696E66006F766600486F6C612061BA
:1013380020746F646F730076616C6F722064656CE3
:101348002073656E736F723A20002C20566F6C7490
:10135800616A653A20002C20677261646F732043CC
:101368003A000D0A0054656D702843656C73697501
:0413780073293D0098
:00000001FF
