:100000000C945D000C9485000C9485000C94850084
:100010000C9485000C9485000C9485000C9485004C
:100020000C9485000C9485000C9485000C9485003C
:100030000C9485000C9485000C9485000C9485002C
:100040000C9498020C9485000C9485000C94850007
:100050000C9485000C9485000C9485000C9485000C
:100060000C9485000C94850000000008000201003B
:100070000003040700000000000000000000000072
:10008000250028002B0000000000240027002A0083
:10009000040404040404040402020202020203032E
:1000A0000303030301020408102040800102040836
:1000B0001020010204081020020411241FBECFEFFB
:1000C000D8E0DEBFCDBF11E0A0E0B1E0EAE0F9E0AA
:1000D00002C005900D92A832B107D9F721E0A8E23D
:1000E000B1E001C01D92AB34B207E1F710E0CDE5FD
:1000F000D0E004C02197FE010E947804CC35D107DE
:10010000C9F70E94E2020C9483040C94000090E072
:10011000FC01EC55FF4F2491FC01E057FF4F849107
:10012000882399F090E0880F991FFC01EA57FF4F50
:10013000A591B491FC01E458FF4F859194918FB73C
:10014000F894EC91E22BEC938FBF0895CF92DF925D
:10015000EF92FF920F931F93CF93DF936C017A017D
:100160008B01C0E0D0E0CE15DF0589F0D8016D919C
:100170008D01D601ED91FC910190F081E02DC60139
:100180000995892B11F47E0102C02196ECCFC7019D
:10019000DF91CF911F910F91FF90EF90DF90CF9063
:1001A000089590E0FC01E859FF4F3491FC01EC55B3
:1001B000FF4F2491FC01E057FF4FE491EE2309F437
:1001C0003BC0332339F1333091F038F43130A9F0AA
:1001D000323001F584B58F7D12C0373091F0383060
:1001E000A1F03430B9F4809180008F7D03C08091FC
:1001F00080008F77809380000DC084B58F7784BD99
:1002000009C08091B0008F7703C08091B0008F7DCE
:100210008093B000F0E0EE0FFF1FE458FF4FA59170
:10022000B4918FB7F894EC91611103C020952E23FF
:1002300001C02E2B2C938FBF08953FB7F894809167
:100240002D0190912E01A0912F01B091300126B582
:10025000A89B05C02F3F19F00196A11DB11D3FBFFE
:10026000BA2FA92F982F8827820F911DA11DB11D8C
:10027000BC01CD0142E0660F771F881F991F4A9588
:10028000D1F70895CF93DF93EC0160E08E810E9457
:10029000D10061E08E810E94D10060E08E810E94D9
:1002A000D1008BE891E00197F1F7DF91CF910895AC
:1002B000CF92DF92EF92FF920F931F93CF93DF9332
:1002C0007C016C0187E0C80ED11CC0E0D0E0062F95
:1002D00010E0B8010C2E02C0759567950A94E2F7FC
:1002E0006170F60181916F010E94D1002196C430A6
:1002F000D10579F7C701DF91CF911F910F91FF9041
:10030000EF90DF90CF900C944201CF92DF92EF926A
:10031000FF920F931F93CF93DF93EC01F62E642F80
:100320008C810E94D1008D818F3F19F060E00E9486
:10033000D1008F850F2D10E084FF25C06E0187E06E
:10034000C80ED11CE12CF12CB8010E2C02C0759501
:1003500067950A94E2F76170F60181916F010E943E
:10036000D100FFEFEF1AFF0A88E0E816F10461F709
:10037000CE01DF91CF911F910F91FF90EF90DF9011
:10038000CF900C944201B80184E0759567958A95E9
:10039000E1F7CE010E9458016F2DCE01DF91CF9180
:1003A0001F910F91FF90EF90DF90CF900C94580128
:1003B00041E00E94850181E090E0089540E00C94C6
:1003C0008501EF92FF920F931F93CF93DF93EC0180
:1003D000623018F08F8588608F876B8B1C8A80E471
:1003E0008D8B80E18E8B80E58F8B8C810E948700C6
:1003F0008D818F3F11F00E9487008E810E948700BF
:100400007E0187E0E80EF11C00E010E08F8584FD9E
:1004100003C084E090E002C088E090E0081719076C
:1004200044F4F70181917F010E9487000F5F1F4F05
:10043000EDCF8BE39DE00197F1F760E08C810E94A6
:10044000D10060E08E810E94D1008D818F3F19F034
:1004500060E00E94D1006F8564FD1DC063E0CE01A5
:100460000E9458010BE416E4C8010197F1F763E01C
:10047000CE010E945801C8010197F1F763E0CE0157
:100480000E94580183E592E00197F1F762E0CE0106
:100490000E94580116C06062CE010E94DE018BE40A
:1004A00096E40197F1F76F856062CE010E94DE014C
:1004B00083E592E00197F1F76F856062CE010E94BB
:1004C000DE016F856062CE010E94DE0184E0888BD0
:1004D0006CE0CE010E94DE0161E0CE010E94DE01EF
:1004E0008BE39FE10197F1F782E0898B66E0CE0113
:1004F000DF91CF911F910F91FF90EF900C94DE014F
:10050000089580E090E00895009769F0FC01019063
:100510000020E9F73197AF01481B590BBC0183E379
:1005200091E00C94A60080E090E008950E947E0483
:100530001F920F920FB60F9211242F933F938F9318
:100540009F93AF93BF938091290190912A01A0912D
:100550002B01B0912C013091280123E0230F2D377E
:1005600020F40196A11DB11D05C026E8230F0296B7
:10057000A11DB11D209328018093290190932A0188
:10058000A0932B01B0932C0180912D0190912E010D
:10059000A0912F01B09130010196A11DB11D809352
:1005A0002D0190932E01A0932F01B0933001BF91A4
:1005B000AF919F918F913F912F910F900FBE0F9010
:1005C0001F901895CF93DF93CDB7DEB7A5970FB6E1
:1005D000F894DEBF0FBECDBF789484B5826084BD31
:1005E00084B5816084BD85B5826085BD85B5816037
:1005F00085BD80916E00816080936E0010928100B5
:10060000809181008260809381008091810081606F
:100610008093810080918000816080938000809130
:10062000B10084608093B1008091B00081608093BC
:10063000B00080917A00846080937A0080917A0083
:10064000826080937A0080917A00816080937A0042
:1006500080917A00806880937A001092C10062E0F5
:1006600083E391E00E94E1018CE091E00E9484022A
:100670002AE0C22ED12CE12CF12C90E4392EE1E0BD
:10068000809146018111E0E0E195F0E0ED5CFE4FE4
:100690006489606883E391E00E94DE0189E191E072
:1006A0000E94840230927C0080917A008064809362
:1006B0007A0080917A0086FDFCCFA091780080912D
:1006C0007900B0E0B82B2FEF30E00E9471042FEFDB
:1006D00033E040E050E00E94210430933201209347
:1006E0003101E1E0809146018111E0E0E195F0E027
:1006F000ED5CFE4F6489635F606883E391E02AA349
:100700003BA34CA35DA30E94DE012AA13BA14CA107
:100710005DA157FF2AC0E0913301F09134010190AF
:10072000F081E02D6DE283E391E009952AA13BA1E0
:100730004CA15DA150954095309521953F4F4F4F6D
:100740005F4F19A28E010F5D1F4FCA01B901A701AA
:1007500096010E944004605DF80162938F012115AB
:1007600031054105510589F713C019A28E010F5DAE
:100770001F4FCA01B901A70196010E944004605DA4
:10078000F80162938F01211531054105510589F763
:10079000C8010E9484020E941D012B013C0184E6D5
:1007A000882E912CA12CB12C0E941D01DC01CB01C3
:1007B00084199509A609B709883E9340A105B1059A
:1007C00058F0F1E08F1A9108A108B10828EE420E06
:1007D00023E0521E611C711C81149104A104B10418
:1007E00019F761E083E391E00E94DE018BE39FE172
:1007F0000197F1F780E090E0892B09F440CF0E9447
:1008000000003BCFE3E3F1E01382128284E091E049
:100810009183808387E084838FEF858388E086835C
:1008200089E087838AE080878BE081878CE08287FC
:100830001386148615861686178661E0CF010C9400
:10084000E101052E97FB1EF400940E94380457FD29
:1008500007D00E94400407FC03D04EF40C943804E7
:1008600050954095309521953F4F4F4F5F4F0895DC
:1008700090958095709561957F4F8F4F9F4F08950C
:10088000A1E21A2EAA1BBB1BFD010DC0AA1FBB1F94
:10089000EE1FFF1FA217B307E407F50720F0A21B06
:1008A000B30BE40BF50B661F771F881F991F1A9473
:1008B00069F760957095809590959B01AC01BD019D
:1008C000CF010895A29FB001B39FC001A39F700DF7
:1008D000811D1124911DB29F700D811D1124911D48
:1008E00008950E946204B7FF0895821B930B089538
:1008F000EE0FFF1F0590F491E02D099481E090E048
:0A090000F8940C948304F894FFCFE0
:10090A0000000000D801A60081028002486F6C61D5
:10091A00206120746F646F7300456E747261646144
:08092A0020284130293D0000A6
:00000001FF
