:100000000C9462000C948A000C948A000C948A0070
:100010000C948A000C948A000C948A000C948A0038
:100020000C948A000C948A000C948A000C948A0028
:100030000C948A000C948A000C948A000C948A0018
:100040000C945B020C948A000C9429020C94030219
:100050000C948A000C948A000C948A000C948A00F8
:100060000C948A000C948A000000000025002800EF
:100070002B0000000000240027002A0000000000E0
:1000800023002600290004040404040404040202DA
:100090000202020203030303030301020408102007
:1000A0004080010204081020010204081020000012
:1000B0000008000201000003040700000000000027
:1000C0000000120411241FBECFEFD8E0DEBFCDBF69
:1000D00011E0A0E0B1E0E8E9F8E002C005900D927F
:1000E000A237B107D9F722E0A2E7B1E001C01D9223
:1000F000A432B207E1F710E0C2E6D0E004C02197D5
:10010000FE010E943F04C136D107C9F70E94A50233
:100110000C944A040C940000CF92DF92EF92FF926D
:100120000F931F93CF93DF936C017A018B01C0E093
:10013000D0E0CE15DF0589F0D8016D918D01D60193
:10014000ED91FC910190F081E02DC6010995892B7C
:1001500011F47E0102C02196ECCFC701DF91CF914F
:100160001F910F91FF90EF90DF90CF900895FC01C9
:10017000918D828D981761F0828DDF01A80FB11DDE
:100180005D968C91928D9F5F9F73928F90E0089502
:100190008FEF9FEF0895FC01918D828D981731F0BC
:1001A000828DE80FF11D858D90E008958FEF9FEF10
:1001B0000895FC01918D228D892F90E0805C9F4FE6
:1001C000821B91098F73992708958BE791E00E9414
:1001D000D90021E0892B09F420E0822F0895FC0149
:1001E000848DDF01A80FB11DA35ABF4F2C91848DC0
:1001F00090E001968F739927848FA689B7892C93F5
:10020000A089B1898C9180648C93938D848D98138F
:1002100006C00288F389E02D80818F7D8083089558
:10022000EF92FF920F931F93CF93DF93EC0181E046
:10023000888F9B8D8C8D981305C0E889F989808102
:1002400085FD24C0F62E0B8D10E00F5F1F4F0F733E
:100250001127E02E8C8DE8120CC00FB607FCFACFE8
:10026000E889F989808185FFF5CFCE010E94EF00F2
:10027000F1CF8B8DFE01E80FF11DE35AFF4FF082A5
:100280000B8FEA89FB898081806207C0EE89FF8934
:100290006083E889F98980818064808381E090E0CF
:1002A000DF91CF911F910F91FF90EF900895CF9321
:1002B000DF93EC01888D8823C9F0EA89FB8980816E
:1002C00085FD05C0A889B9898C9186FD0FC00FB640
:1002D00007FCF5CF808185FFF2CFA889B9898C9181
:1002E00085FFEDCFCE010E94EF00E7CFDF91CF91E8
:1002F000089580E090E0892B29F00E94E5008111AB
:100300000C9400000895833081F028F4813099F036
:100310008230A1F008958730A9F08830B9F0843098
:10032000D1F4809180008F7D03C0809180008F7711
:1003300080938000089584B58F7702C084B58F7D47
:1003400084BD08958091B0008F7703C08091B00084
:100350008F7D8093B00008951F93CF93DF93282F54
:1003600030E0F901E255FF4F8491F901E656FF4F65
:10037000D491F901EA57FF4FC491CC23C9F0162F4D
:1003800081110E948301EC2FF0E0EE0FFF1FE8596E
:10039000FF4FA591B4918FB7F894111105C09C91AE
:1003A000ED2FE095E92302C0EC91ED2BEC938FBF8C
:1003B000DF91CF911F9108953FB7F8948091770115
:1003C00090917801A0917901B0917A0126B5A89B0E
:1003D00005C02F3F19F00196A11DB11D3FBFBA2FD7
:1003E000A92F982F8827820F911DA11DB11DBC0137
:1003F000CD0142E0660F771F881F991F4A95D1F7FC
:1004000008950E9445041F920F920FB60F92112477
:100410002F933F934F935F936F937F938F939F930C
:10042000AF93BF93EF93FF938BE791E00E94EF00B0
:10043000FF91EF91BF91AF919F918F917F916F91BC
:100440005F914F913F912F910F900FBE0F901F9092
:1004500018951F920F920FB60F9211242F938F931E
:100460009F93EF93FF93E0918B01F0918C0180813A
:10047000E0919101F091920182FD12C090818091F2
:1004800094018F5F8F7320919501821751F0E09155
:100490009401F0E0E558FE4F958F8093940101C0E0
:1004A0008081FF91EF919F918F912F910F900FBEBF
:1004B0000F901F9018951F920F920FB60F92112454
:1004C0002F933F938F939F93AF93BF93809173012B
:1004D00090917401A0917501B091760130917201F3
:1004E00023E0230F2D3720F40196A11DB11D05C077
:1004F00026E8230F0296A11DB11D2093720180935F
:10050000730190937401A0937501B093760180916B
:10051000770190917801A0917901B0917A010196CB
:10052000A11DB11D8093770190937801A09379016B
:10053000B0937A01BF91AF919F918F913F912F918D
:100540000F900FBE0F901F901895789484B582601D
:1005500084BD84B5816084BD85B5826085BD85B567
:10056000816085BD80916E00816080936E001092E5
:100570008100809181008260809381008091810060
:1005800081608093810080918000816080938000F1
:100590008091B10084608093B1008091B00081604F
:1005A0008093B00080917A00846080937A0080917B
:1005B0007A00826080937A0080917A0081608093D3
:1005C0007A0080917A00806880937A001092C1004E
:1005D000A6E6B1E08D919D919927FC01E656FF4F6B
:1005E0002491FC01EA57FF4F84918823C9F090E0E1
:1005F000880F991FFC01EE58FF4F45915491FC0163
:10060000E859FF4FC591D4919FB7F894FA018081C2
:100610002095822380838881E22FE823E8839FBF8F
:10062000F1E0A237BF07B1F6A0E1B1E08D9190E013
:10063000FC01E656FF4F2491FC01EA57FF4F8491DD
:10064000882399F090E0880F991FFC01EE58FF4F26
:10065000C591D491FC01E859FF4F859194918FB7D2
:10066000F894E881E22BE8838FBF21E0A631B2073E
:10067000E9F6E0918B01F0918C0182E08083E091BA
:100680008701F09188011082E0918901F0918A013F
:100690008FEC808310929301E0918F01F091900193
:1006A00086E08083E0918D01F0918E0180818061F0
:1006B0008083E0918D01F0918E018081886080833C
:1006C000E0918D01F0918E01808180688083E091BE
:1006D0008D01F0918E0180818F7D808375E0F72EF2
:1006E000C8E1D2E006E611E0F801219131918F01D5
:1006F0003327F901E255FF4F8491F901E656FF4F88
:10070000D490F901EA57FF4FE490EE20A1F0811157
:100710000E948301EE2DF0E0EE0FFF1FE458FF4F23
:10072000A591B491EC91ED2131E020E009F430E0A5
:10073000832F922F02C080E090E089939993F1E09B
:1007400002371F0789F680911A0290911B02880FC9
:10075000991F2091180230911902820F931F209146
:100760001C0230911D02220F331F220F331F820FF4
:10077000931F20911E0230911F0253E0220F331F5E
:100780005A95E1F7820F931F009729F460E088E003
:100790000E94AC011EC0F89E8001F99E100D11242C
:1007A00090E1A92E91E0B92EC0E0D0E061E088E0B0
:1007B0000E94AC01FE01E00FF11FEA5EFE4F608176
:1007C000F50181915F010E94AC012196C530D105F0
:1007D00069F70E94DC012B013C0182E3882E912CF9
:1007E000A12CB12C0E94DC01DC01CB0184199509FC
:1007F000A609B709883E9340A105B10558F0F1E07C
:100800008F1A9108A108B10828EE420E23E0521E6B
:10081000611C711C81149104A104B10419F70E9498
:1008200079015ECFEBE7F1E01382128288EE93E06C
:10083000A0E0B0E084839583A683B78384E091E051
:100840009183808385EC90E09587848784EC90E0A9
:100850009787868780EC90E0918B808B81EC90E08D
:10086000938B828B82EC90E0958B848B86EC90E06E
:10087000978B868B118E128E138E148E0895EE0F29
:10088000FF1F0590F491E02D099481E090E0F89429
:080890000C944A04F894FFCF18
:100898000000000010018C00D900B700CB00570100
:1008A8000D0C0B0A09080000000000000000000100
:1008B800000000010000000001010000010000002C
:1008C8000001000100000101000000010101000118
:1008D800000000000100000101000000000100000C
:1008E80000010100000100010000010101000100F8
:1008F80000010001000102000300040005000600D9
:020908000700E6
:00000001FF
