:100000000C9435000C945D000C945D000C945D0024
:100010000C945D000C945D000C945D000C945D00EC
:100020000C945D000C945D000C945D000C945D00DC
:100030000C945D000C945D000C945D000C945D00CC
:100040000C949D020C945D000C940D030C94E7023B
:100050000C945D000C945D000C945D000C945D00AC
:100060000C945D000C945D00430411241FBECFEF7F
:10007000D8E0DEBFCDBF11E0A0E0B1E0E6EBFDE0EF
:1000800002C005900D92AC34B107D9F721E0ACE481
:10009000B1E001C01D92AC3FB207E1F710E0C5E34B
:1000A000D0E004C02197FE010E94CE06C433D107E0
:1000B000C9F70E943F030C94D9060C940000E0910C
:1000C0005F01F09160010190F081E02D682F8FE5D4
:1000D00091E00994CF92DF92EF92FF920F931F93DA
:1000E000CF93DF936C017A018B01C0E0D0E0CE1595
:1000F000DF0589F0D8016D918D01D601ED91FC915C
:100100000190F081E02DC6010995892B11F47E0143
:1001100002C02196ECCFC701DF91CF911F910F91C3
:10012000FF90EF90DF90CF900895089580E090E0E9
:100130000895FC01538D448D252F30E0842F90E0ED
:10014000821B930B541710F0CF96089501970895D2
:10015000FC01918D828D981761F0828DDF01A80FCF
:10016000B11D5D968C91928D9F5F9F73928F90E0F1
:1001700008958FEF9FEF0895FC01918D828D981760
:1001800031F0828DE80FF11D858D90E008958FEF9D
:100190009FEF0895FC01918D228D892F90E0805C66
:1001A0009F4F821B91098F73992708958FE591E0E6
:1001B0000E94CA0021E0892B09F420E0822F0895D3
:1001C000FC01848DDF01A80FB11DA35ABF4F2C91F4
:1001D000848D90E001968F739927848FA689B789C3
:1001E0002C93A089B1898C9180648C93938D848D9C
:1001F000981306C00288F389E02D80818F7D80836B
:100200000895EF92FF920F931F93CF93DF93EC012A
:1002100081E0888F9B8D8C8D981305C0E889F989C2
:10022000808185FD24C0F62E0B8D10E00F5F1F4FDF
:100230000F731127E02E8C8DE8120CC00FB607FC4F
:10024000FACFE889F989808185FFF5CFCE010E9438
:10025000E000F1CF8B8DFE01E80FF11DE35AFF4F57
:10026000F0820B8FEA89FB898081806207C0EE896A
:10027000FF896083E889F98980818064808381E0D7
:1002800090E0DF91CF911F910F91FF90EF90089533
:10029000CF93DF93EC01888D8823C9F0EA89FB892D
:1002A000808185FD05C0A889B9898C9186FD0FC024
:1002B0000FB607FCF5CF808185FFF2CFA889B989F9
:1002C0008C9185FFEDCFCE010E94E000E7CFDF915A
:1002D000CF91089580E090E0892B29F00E94D6000C
:1002E00081110C9400000895009769F0FC010190C1
:1002F0000020E9F73197AF01481B590BBC018FE58E
:1003000091E00C946A0080E090E008958F929F92B3
:10031000AF92BF920F931F93CF93DF93CDB7DEB70A
:10032000A1970FB6F894DEBF0FBECDBF19A2423021
:1003300008F44AE08E010F5D1F4F842E912CA12CF2
:10034000B12CA50194010E94AC06E62FB901CA01A7
:1003500001501109EA3014F4E05D01C0E95CD801F4
:10036000EC93232B242B252B61F7C8010E947401E9
:10037000A1960FB6F894DEBF0FBECDBFDF91CF912F
:100380001F910F91BF90AF909F908F9008954F92C3
:100390005F926F927F928F929F92AF92BF92CF9215
:1003A000DF92EF92FF926B017C01B42E9B01AC01B6
:1003B0000E94A706882319F082E191E027C0260158
:1003C0003701E89477F82FEF3FEF4FE75FE7C3017E
:1003D000B2010E94A70681110DC02FEF3FEF4FE73A
:1003E0005FE7C301B2010E94DD0418161CF486E128
:1003F00091E00CC02FEF3FEF4FE75FE4C701B6017C
:100400000E943506181684F48AE191E0FF90EF907F
:10041000DF90CF90BF90AF909F908F907F906F9024
:100420005F904F900C9474012FEF3FEF4FE75FEC1C
:10043000C701B6010E94DD0487FDE6CF20E030E071
:10044000A901C701B6010E94DD0487FF09C08DE242
:100450000E945F004C01F7FAF094F7F8F09402C0A4
:10046000812C912CA12C60E070E080E09FE3AB1424
:1004700041F020E030E040E251E40E94E204A39425
:10048000F6CF9B01AC01C701B6010E9471042B019C
:100490003C010E9454056B017C010E9483059B0175
:1004A000AC01C301B2010E9470042B013C014AE07F
:1004B000C701B6010E9486017C01E80CF91CBB2033
:1004C00029F08EE20E945F00E80EF91EDB2CDD2091
:1004D00021F120E030E040E251E4C301B2010E948A
:1004E0003A062B013C010E9454054B01A12CB12C72
:1004F0004AE0C501B4010E948601E80EF91EC5015B
:10050000B4010E9483059B01AC01C301B2010E94AA
:1005100070042B013C01DA94DACFC701FF90EF9011
:10052000DF90CF90BF90AF909F908F907F906F9013
:100530005F904F9008950E94D4061F920F920FB6BD
:100540000F9211242F933F938F939F93AF93BF9359
:1005500080915B0190915C01A0915D01B0915E0181
:1005600030915A0123E0230F2D3720F40196A11D6D
:10057000B11D05C026E8230F0296A11DB11D2093D1
:100580005A0180935B0190935C01A0935D01B0934D
:100590005E018091560190915701A0915801B09150
:1005A00059010196A11DB11D8093560190935701E9
:1005B000A0935801B0935901BF91AF919F918F9132
:1005C0003F912F910F900FBE0F901F9018951F9283
:1005D0000F920FB60F9211242F933F934F935F9377
:1005E0006F937F938F939F93AF93BF93EF93FF93FB
:1005F0008FE591E00E94E000FF91EF91BF91AF91F4
:100600009F918F917F916F915F914F913F912F912A
:100610000F900FBE0F901F9018951F920F920FB65C
:100620000F9211242F938F939F93EF93FF93E09159
:100630006F01F09170018081E0917501F091760178
:1006400082FD12C09081809178018F5F8F7320911D
:100650007901821751F0E0917801F0E0E15AFE4F04
:10066000958F8093780101C08081FF91EF919F91D8
:100670008F912F910F900FBE0F901F901895789427
:1006800084B5826084BD84B5816084BD85B5826097
:1006900085BD85B5816085BD80916E008160809348
:1006A0006E001092810080918100826080938100B1
:1006B00080918100816080938100809180008160C1
:1006C000809380008091B10084608093B10080911C
:1006D000B00081608093B00080917A008460809344
:1006E0007A0080917A00826080937A0080917A000B
:1006F000816080937A0080917A00806880937A008C
:100700001092C100E0916F01F091700182E080834E
:10071000E0916B01F0916C011082E0916D01F0911C
:100720006E018FEC808310927701E0917301F0915C
:10073000740186E08083E0917101F0917201808103
:1007400080618083E0917101F09172018081886005
:100750008083E0917101F0917201808180688083D3
:10076000E0917101F091720180818F7D8083C1E4FD
:10077000C0937C0080917A00806480937A0080919D
:100780007A0086FDFCCF809178002091790090E07E
:10079000922B90935501809354018EE191E00E9439
:1007A0007401C0905401D09055010D2C000CEE083E
:1007B000FF08F7FE0CC08DE20E945F0066277727D6
:1007C000CB016C197D098E099F094AE003C04AE0FC
:1007D000C701B6010E9486016091540170915501D4
:1007E000072E000C880B990B0E94850520E030E055
:1007F00040E85AE30E943A0620E030E040EA50E444
:100800000E943A0660935001709351018093520107
:100810009093530181E391E00E9474016091500133
:1008200070915101809152019091530142E00E94D8
:10083000C7018DE391E00E94740120E030E040E0C8
:100840005FE360915001709151018091520190914C
:1008500053010E94700420E030E048EC52E40E9412
:100860003A0660934C0170934D0180934E01909332
:100870004F0142E00E94C70189E491E00E947401A7
:100880000E946A0175CFEFE5F1E01382128288EED3
:1008900093E0A0E0B0E084839583A683B78384E0EF
:1008A00091E09183808385EC90E09587848784EC48
:1008B00090E09787868780EC90E0918B808B81EC2D
:1008C00090E0938B828B82EC90E0958B848B86EC0E
:1008D00090E0978B868B118E128E138E148E089556
:1008E0005058BB27AA270E9488040C94FB050E943D
:1008F000ED0538F00E94F40520F039F49F3F19F41B
:1009000026F40C94EA050EF4E095E7FB0C94E4055C
:10091000E92F0E940C0658F3BA1762077307840781
:10092000950720F079F4A6F50C942E060EF4E095C8
:100930000B2EBA2FA02D0B01B90190010C01CA0199
:10094000A0011124FF27591B99F0593F50F4503E44
:1009500068F11A16F040A22F232F342F4427585F36
:10096000F3CF469537952795A795F0405395C9F74E
:100970007EF41F16BA0B620B730B840BBAF0915006
:10098000A1F0FF0FBB1F661F771F881FC2F70EC0A5
:10099000BA0F621F731F841F48F487957795679578
:1009A000B795F7959E3F08F0B0CF9395880F08F064
:1009B0009927EE0F9795879508950E94C00508F432
:1009C00081E008950E94F6040C94FB050E94F40552
:1009D00058F00E94ED0540F029F45F3F29F00C9497
:1009E000E40551110C942F060C94EA050E940C06A4
:1009F00068F39923B1F3552391F3951B550BBB274E
:100A0000AA2762177307840738F09F5F5F4F220F92
:100A1000331F441FAA1FA9F335D00E2E3AF0E0E889
:100A200032D091505040E695001CCAF72BD0FE2FD3
:100A300029D0660F771F881FBB1F26173707480767
:100A4000AB07B0E809F0BB0B802DBF01FF2793581F
:100A50005F4F3AF09E3F510578F00C94E4050C94FA
:100A60002F065F3FE4F3983ED4F38695779567951C
:100A7000B795F7959F5FC9F7880F911D9695879554
:100A800097F90895E1E0660F771F881FBB1F621773
:100A900073078407BA0720F0621B730B840BBA0B31
:100AA000EE1F88F7E09508950E94140688F09F577E
:100AB00098F0B92F9927B751B0F0E1F0660F771F82
:100AC000881F991F1AF0BA95C9F714C0B13091F078
:100AD0000E942E06B1E008950C942E06672F782F01
:100AE0008827B85F39F0B93FCCF38695779567953D
:100AF000B395D9F73EF490958095709561957F4FA9
:100B00008F4F9F4F0895E89409C097FB3EF490954E
:100B10008095709561957F4F8F4F9F4F9923A9F0D6
:100B2000F92F96E9BB279395F69587957795679565
:100B3000B795F111F8CFFAF4BB0F11F460FF1BC0A9
:100B40006F5F7F4F8F4F9F4F16C0882311F096E93C
:100B500011C0772321F09EE8872F762F05C06623EA
:100B600071F096E8862F70E060E02AF09A95660FA3
:100B7000771F881FDAF7880F9695879597F908955C
:100B8000990F0008550FAA0BE0E8FEEF161617069E
:100B9000E807F907C0F012161306E407F50798F006
:100BA000621B730B840B950B39F40A2661F0232B1F
:100BB000242B252B21F408950A2609F4A140A6959B
:100BC0008FEF811D811D089597F99F6780E870E080
:100BD00060E008959FEF80EC089500240A941616B3
:100BE000170618060906089500240A94121613061B
:100BF000140605060895092E0394000C11F48823A9
:100C000052F0BB0F40F4BF2B11F460FF04C06F5FC4
:100C10007F4F8F4F9F4F089557FD9058440F551F9A
:100C200059F05F3F71F04795880F97FB991F61F06E
:100C30009F3F79F087950895121613061406551FE5
:100C4000F2CF4695F1DF08C0161617061806991F51
:100C5000F1CF86957105610508940895E894BB2746
:100C600066277727CB0197F908950E94C00508F4FD
:100C70008FEF08950E944D060C94FB050E94ED0530
:100C800038F00E94F40520F0952311F00C94E4054F
:100C90000C94EA0511240C942F060E940C0670F3A4
:100CA000959FC1F3950F50E0551F629FF001729F11
:100CB000BB27F00DB11D639FAA27F00DB11DAA1F20
:100CC000649F6627B00DA11D661F829F2227B00D6D
:100CD000A11D621F739FB00DA11D621F839FA00DF8
:100CE000611D221F749F3327A00D611D231F849F48
:100CF000600D211D822F762F6A2F11249F5750409F
:100D00009AF0F1F088234AF0EE0FFF1FBB1F661F19
:100D1000771F881F91505040A9F79E3F510580F0E2
:100D20000C94E4050C942F065F3FE4F3983ED4F353
:100D3000869577956795B795F795E7959F5FC1F786
:100D4000FE2B880F911D9695879597F908950E941F
:100D5000C005880B990B0895A1E21A2EAA1BBB1B94
:100D6000FD010DC0AA1FBB1FEE1FFF1FA217B30777
:100D7000E407F50720F0A21BB30BE40BF50B661F8D
:100D8000771F881F991F1A9469F760957095809551
:100D900090959B01AC01BD01CF010895EE0FFF1F9F
:100DA0000590F491E02D099481E090E0F8940C9482
:060DB000D906F894FFCF04
:100DB6000000000001016A0099004801CA00A8006D
:100DC600BC006E616E00696E66006F7666007661C5
:100DD6006C6F722064656C2073656E736F723A2057
:100DE600002C20566F6C74616A653A20002C2067CF
:0C0DF6007261646F7320433A000D0A0024
:00000001FF
